{
  "_format": "hh-sol-artifact-1",
  "contractName": "DegenToken",
  "sourceName": "contracts/DegenToken.sol",
  "abi": [
    {
      "inputs": [
        {
          "internalType": "uint256",
          "name": "initialSupply",
          "type": "uint256"
        }
      ],
      "stateMutability": "nonpayable",
      "type": "constructor"
    },
    {
      "inputs": [
        {
          "internalType": "address",
          "name": "spender",
          "type": "address"
        },
        {
          "internalType": "uint256",
          "name": "allowance",
          "type": "uint256"
        },
        {
          "internalType": "uint256",
          "name": "needed",
          "type": "uint256"
        }
      ],
      "name": "ERC20InsufficientAllowance",
      "type": "error"
    },
    {
      "inputs": [
        {
          "internalType": "address",
          "name": "sender",
          "type": "address"
        },
        {
          "internalType": "uint256",
          "name": "balance",
          "type": "uint256"
        },
        {
          "internalType": "uint256",
          "name": "needed",
          "type": "uint256"
        }
      ],
      "name": "ERC20InsufficientBalance",
      "type": "error"
    },
    {
      "inputs": [
        {
          "internalType": "address",
          "name": "approver",
          "type": "address"
        }
      ],
      "name": "ERC20InvalidApprover",
      "type": "error"
    },
    {
      "inputs": [
        {
          "internalType": "address",
          "name": "receiver",
          "type": "address"
        }
      ],
      "name": "ERC20InvalidReceiver",
      "type": "error"
    },
    {
      "inputs": [
        {
          "internalType": "address",
          "name": "sender",
          "type": "address"
        }
      ],
      "name": "ERC20InvalidSender",
      "type": "error"
    },
    {
      "inputs": [
        {
          "internalType": "address",
          "name": "spender",
          "type": "address"
        }
      ],
      "name": "ERC20InvalidSpender",
      "type": "error"
    },
    {
      "inputs": [
        {
          "internalType": "address",
          "name": "owner",
          "type": "address"
        }
      ],
      "name": "OwnableInvalidOwner",
      "type": "error"
    },
    {
      "inputs": [
        {
          "internalType": "address",
          "name": "account",
          "type": "address"
        }
      ],
      "name": "OwnableUnauthorizedAccount",
      "type": "error"
    },
    {
      "anonymous": false,
      "inputs": [
        {
          "indexed": true,
          "internalType": "address",
          "name": "owner",
          "type": "address"
        },
        {
          "indexed": true,
          "internalType": "address",
          "name": "spender",
          "type": "address"
        },
        {
          "indexed": false,
          "internalType": "uint256",
          "name": "value",
          "type": "uint256"
        }
      ],
      "name": "Approval",
      "type": "event"
    },
    {
      "anonymous": false,
      "inputs": [
        {
          "indexed": true,
          "internalType": "address",
          "name": "player",
          "type": "address"
        },
        {
          "indexed": false,
          "internalType": "uint256",
          "name": "itemId",
          "type": "uint256"
        }
      ],
      "name": "ItemRedeemed",
      "type": "event"
    },
    {
      "anonymous": false,
      "inputs": [
        {
          "indexed": true,
          "internalType": "address",
          "name": "previousOwner",
          "type": "address"
        },
        {
          "indexed": true,
          "internalType": "address",
          "name": "newOwner",
          "type": "address"
        }
      ],
      "name": "OwnershipTransferred",
      "type": "event"
    },
    {
      "anonymous": false,
      "inputs": [
        {
          "indexed": true,
          "internalType": "address",
          "name": "player",
          "type": "address"
        },
        {
          "indexed": false,
          "internalType": "uint256",
          "name": "amount",
          "type": "uint256"
        }
      ],
      "name": "TokensRedeemed",
      "type": "event"
    },
    {
      "anonymous": false,
      "inputs": [
        {
          "indexed": true,
          "internalType": "address",
          "name": "from",
          "type": "address"
        },
        {
          "indexed": true,
          "internalType": "address",
          "name": "to",
          "type": "address"
        },
        {
          "indexed": false,
          "internalType": "uint256",
          "name": "value",
          "type": "uint256"
        }
      ],
      "name": "Transfer",
      "type": "event"
    },
    {
      "inputs": [
        {
          "internalType": "address",
          "name": "owner",
          "type": "address"
        },
        {
          "internalType": "address",
          "name": "spender",
          "type": "address"
        }
      ],
      "name": "allowance",
      "outputs": [
        {
          "internalType": "uint256",
          "name": "",
          "type": "uint256"
        }
      ],
      "stateMutability": "view",
      "type": "function"
    },
    {
      "inputs": [
        {
          "internalType": "address",
          "name": "spender",
          "type": "address"
        },
        {
          "internalType": "uint256",
          "name": "value",
          "type": "uint256"
        }
      ],
      "name": "approve",
      "outputs": [
        {
          "internalType": "bool",
          "name": "",
          "type": "bool"
        }
      ],
      "stateMutability": "nonpayable",
      "type": "function"
    },
    {
      "inputs": [
        {
          "internalType": "address",
          "name": "account",
          "type": "address"
        }
      ],
      "name": "balanceOf",
      "outputs": [
        {
          "internalType": "uint256",
          "name": "",
          "type": "uint256"
        }
      ],
      "stateMutability": "view",
      "type": "function"
    },
    {
      "inputs": [
        {
          "internalType": "uint256",
          "name": "_amt",
          "type": "uint256"
        }
      ],
      "name": "burn",
      "outputs": [],
      "stateMutability": "nonpayable",
      "type": "function"
    },
    {
      "inputs": [],
      "name": "decimals",
      "outputs": [
        {
          "internalType": "uint8",
          "name": "",
          "type": "uint8"
        }
      ],
      "stateMutability": "view",
      "type": "function"
    },
    {
      "inputs": [],
      "name": "getAllItems",
      "outputs": [
        {
          "components": [
            {
              "internalType": "string",
              "name": "name",
              "type": "string"
            },
            {
              "internalType": "uint256",
              "name": "cost",
              "type": "uint256"
            },
            {
              "internalType": "address",
              "name": "owner",
              "type": "address"
            }
          ],
          "internalType": "struct DegenToken.Item[]",
          "name": "",
          "type": "tuple[]"
        }
      ],
      "stateMutability": "view",
      "type": "function"
    },
    {
      "inputs": [
        {
          "internalType": "uint256",
          "name": "",
          "type": "uint256"
        }
      ],
      "name": "items",
      "outputs": [
        {
          "internalType": "string",
          "name": "name",
          "type": "string"
        },
        {
          "internalType": "uint256",
          "name": "cost",
          "type": "uint256"
        },
        {
          "internalType": "address",
          "name": "owner",
          "type": "address"
        }
      ],
      "stateMutability": "view",
      "type": "function"
    },
    {
      "inputs": [
        {
          "internalType": "address",
          "name": "to",
          "type": "address"
        },
        {
          "internalType": "uint256",
          "name": "_amt",
          "type": "uint256"
        }
      ],
      "name": "mint",
      "outputs": [],
      "stateMutability": "nonpayable",
      "type": "function"
    },
    {
      "inputs": [],
      "name": "name",
      "outputs": [
        {
          "internalType": "string",
          "name": "",
          "type": "string"
        }
      ],
      "stateMutability": "view",
      "type": "function"
    },
    {
      "inputs": [],
      "name": "owner",
      "outputs": [
        {
          "internalType": "address",
          "name": "",
          "type": "address"
        }
      ],
      "stateMutability": "view",
      "type": "function"
    },
    {
      "inputs": [
        {
          "internalType": "uint256",
          "name": "itemId",
          "type": "uint256"
        }
      ],
      "name": "redeemItem",
      "outputs": [],
      "stateMutability": "nonpayable",
      "type": "function"
    },
    {
      "inputs": [],
      "name": "renounceOwnership",
      "outputs": [],
      "stateMutability": "nonpayable",
      "type": "function"
    },
    {
      "inputs": [],
      "name": "symbol",
      "outputs": [
        {
          "internalType": "string",
          "name": "",
          "type": "string"
        }
      ],
      "stateMutability": "view",
      "type": "function"
    },
    {
      "inputs": [],
      "name": "totalSupply",
      "outputs": [
        {
          "internalType": "uint256",
          "name": "",
          "type": "uint256"
        }
      ],
      "stateMutability": "view",
      "type": "function"
    },
    {
      "inputs": [
        {
          "internalType": "address",
          "name": "to",
          "type": "address"
        },
        {
          "internalType": "uint256",
          "name": "_amt",
          "type": "uint256"
        }
      ],
      "name": "transfer",
      "outputs": [
        {
          "internalType": "bool",
          "name": "",
          "type": "bool"
        }
      ],
      "stateMutability": "nonpayable",
      "type": "function"
    },
    {
      "inputs": [
        {
          "internalType": "address",
          "name": "from",
          "type": "address"
        },
        {
          "internalType": "address",
          "name": "to",
          "type": "address"
        },
        {
          "internalType": "uint256",
          "name": "value",
          "type": "uint256"
        }
      ],
      "name": "transferFrom",
      "outputs": [
        {
          "internalType": "bool",
          "name": "",
          "type": "bool"
        }
      ],
      "stateMutability": "nonpayable",
      "type": "function"
    },
    {
      "inputs": [
        {
          "internalType": "address",
          "name": "newOwner",
          "type": "address"
        }
      ],
      "name": "transferOwnership",
      "outputs": [],
      "stateMutability": "nonpayable",
      "type": "function"
    }
  ],
  "bytecode": "0x60806040523480156200001157600080fd5b5060405162002fdc38038062002fdc833981810160405281019062000037919062000c52565b336040518060400160405280600a81526020017f446567656e546f6b656e000000000000000000000000000000000000000000008152506040518060400160405280600381526020017f44474e00000000000000000000000000000000000000000000000000000000008152508160039081620000b5919062000ef4565b508060049081620000c7919062000ef4565b505050600073ffffffffffffffffffffffffffffffffffffffff168173ffffffffffffffffffffffffffffffffffffffff16036200013f5760006040517f1e4fbdf700000000000000000000000000000000000000000000000000000000815260040162000136919062001020565b60405180910390fd5b62000150816200088660201b60201c565b506200018d33620001666200094c60201b60201c565b600a620001749190620011cd565b836200018191906200121e565b6200095560201b60201c565b600660405180606001604052806040518060400160405280600581526020017f4d65656c650000000000000000000000000000000000000000000000000000008152508152602001620001e56200094c60201b60201c565b600a620001f39190620011cd565b60c86200020191906200121e565b8152602001600073ffffffffffffffffffffffffffffffffffffffff168152509080600181540180825580915050600190039060005260206000209060030201600090919091909150600082015181600001908162000261919062000ef4565b506020820151816001015560408201518160020160006101000a81548173ffffffffffffffffffffffffffffffffffffffff021916908373ffffffffffffffffffffffffffffffffffffffff1602179055505050600660405180606001604052806040518060400160405280600481526020017f4f64696e0000000000000000000000000000000000000000000000000000000081525081526020016200030d6200094c60201b60201c565b600a6200031b9190620011cd565b61012c6200032a91906200121e565b8152602001600073ffffffffffffffffffffffffffffffffffffffff16815250908060018154018082558091505060019003906000526020600020906003020160009091909190915060008201518160000190816200038a919062000ef4565b506020820151816001015560408201518160020160006101000a81548173ffffffffffffffffffffffffffffffffffffffff021916908373ffffffffffffffffffffffffffffffffffffffff1602179055505050600660405180606001604052806040518060400160405280600681526020017f56616e64616c00000000000000000000000000000000000000000000000000008152508152602001620004366200094c60201b60201c565b600a620004449190620011cd565b60326200045291906200121e565b8152602001600073ffffffffffffffffffffffffffffffffffffffff1681525090806001815401808255809150506001900390600052602060002090600302016000909190919091506000820151816000019081620004b2919062000ef4565b506020820151816001015560408201518160020160006101000a81548173ffffffffffffffffffffffffffffffffffffffff021916908373ffffffffffffffffffffffffffffffffffffffff1602179055505050600660405180606001604052806040518060400160405280600781526020017f537065637472650000000000000000000000000000000000000000000000000081525081526020016200055e6200094c60201b60201c565b600a6200056c9190620011cd565b60646200057a91906200121e565b8152602001600073ffffffffffffffffffffffffffffffffffffffff1681525090806001815401808255809150506001900390600052602060002090600302016000909190919091506000820151816000019081620005da919062000ef4565b506020820151816001015560408201518160020160006101000a81548173ffffffffffffffffffffffffffffffffffffffff021916908373ffffffffffffffffffffffffffffffffffffffff1602179055505050600660405180606001604052806040518060400160405280600281526020017f4f700000000000000000000000000000000000000000000000000000000000008152508152602001620006866200094c60201b60201c565b600a620006949190620011cd565b6101f4620006a391906200121e565b8152602001600073ffffffffffffffffffffffffffffffffffffffff168152509080600181540180825580915050600190039060005260206000209060030201600090919091909150600082015181600001908162000703919062000ef4565b506020820151816001015560408201518160020160006101000a81548173ffffffffffffffffffffffffffffffffffffffff021916908373ffffffffffffffffffffffffffffffffffffffff1602179055505050600660405180606001604052806040518060400160405280600781526020017f53686572726966000000000000000000000000000000000000000000000000008152508152602001620007af6200094c60201b60201c565b600a620007bd9190620011cd565b60fa620007cb91906200121e565b8152602001600073ffffffffffffffffffffffffffffffffffffffff16815250908060018154018082558091505060019003906000526020600020906003020160009091909190915060008201518160000190816200082b919062000ef4565b506020820151816001015560408201518160020160006101000a81548173ffffffffffffffffffffffffffffffffffffffff021916908373ffffffffffffffffffffffffffffffffffffffff1602179055505050506200130f565b6000600560009054906101000a900473ffffffffffffffffffffffffffffffffffffffff16905081600560006101000a81548173ffffffffffffffffffffffffffffffffffffffff021916908373ffffffffffffffffffffffffffffffffffffffff1602179055508173ffffffffffffffffffffffffffffffffffffffff168173ffffffffffffffffffffffffffffffffffffffff167f8be0079c531659141344cd1fd0a4f28419497f9722a3daafe3b4186f6b6457e060405160405180910390a35050565b60006012905090565b600073ffffffffffffffffffffffffffffffffffffffff168273ffffffffffffffffffffffffffffffffffffffff1603620009ca5760006040517fec442f05000000000000000000000000000000000000000000000000000000008152600401620009c1919062001020565b60405180910390fd5b620009de60008383620009e260201b60201c565b5050565b600073ffffffffffffffffffffffffffffffffffffffff168373ffffffffffffffffffffffffffffffffffffffff160362000a3857806002600082825462000a2b919062001269565b9250508190555062000b0e565b60008060008573ffffffffffffffffffffffffffffffffffffffff1673ffffffffffffffffffffffffffffffffffffffff1681526020019081526020016000205490508181101562000ac7578381836040517fe450d38c00000000000000000000000000000000000000000000000000000000815260040162000abe93929190620012b5565b60405180910390fd5b8181036000808673ffffffffffffffffffffffffffffffffffffffff1673ffffffffffffffffffffffffffffffffffffffff16815260200190815260200160002081905550505b600073ffffffffffffffffffffffffffffffffffffffff168273ffffffffffffffffffffffffffffffffffffffff160362000b59578060026000828254039250508190555062000ba6565b806000808473ffffffffffffffffffffffffffffffffffffffff1673ffffffffffffffffffffffffffffffffffffffff168152602001908152602001600020600082825401925050819055505b8173ffffffffffffffffffffffffffffffffffffffff168373ffffffffffffffffffffffffffffffffffffffff167fddf252ad1be2c89b69c2b068fc378daa952ba7f163c4a11628f55a4df523b3ef8360405162000c059190620012f2565b60405180910390a3505050565b600080fd5b6000819050919050565b62000c2c8162000c17565b811462000c3857600080fd5b50565b60008151905062000c4c8162000c21565b92915050565b60006020828403121562000c6b5762000c6a62000c12565b5b600062000c7b8482850162000c3b565b91505092915050565b600081519050919050565b7f4e487b7100000000000000000000000000000000000000000000000000000000600052604160045260246000fd5b7f4e487b7100000000000000000000000000000000000000000000000000000000600052602260045260246000fd5b6000600282049050600182168062000d0657607f821691505b60208210810362000d1c5762000d1b62000cbe565b5b50919050565b60008190508160005260206000209050919050565b60006020601f8301049050919050565b600082821b905092915050565b60006008830262000d867fffffffffffffffffffffffffffffffffffffffffffffffffffffffffffffffff8262000d47565b62000d92868362000d47565b95508019841693508086168417925050509392505050565b6000819050919050565b600062000dd562000dcf62000dc98462000c17565b62000daa565b62000c17565b9050919050565b6000819050919050565b62000df18362000db4565b62000e0962000e008262000ddc565b84845462000d54565b825550505050565b600090565b62000e2062000e11565b62000e2d81848462000de6565b505050565b5b8181101562000e555762000e4960008262000e16565b60018101905062000e33565b5050565b601f82111562000ea45762000e6e8162000d22565b62000e798462000d37565b8101602085101562000e89578190505b62000ea162000e988562000d37565b83018262000e32565b50505b505050565b600082821c905092915050565b600062000ec96000198460080262000ea9565b1980831691505092915050565b600062000ee4838362000eb6565b9150826002028217905092915050565b62000eff8262000c84565b67ffffffffffffffff81111562000f1b5762000f1a62000c8f565b5b62000f27825462000ced565b62000f3482828562000e59565b600060209050601f83116001811462000f6c576000841562000f57578287015190505b62000f63858262000ed6565b86555062000fd3565b601f19841662000f7c8662000d22565b60005b8281101562000fa65784890151825560018201915060208501945060208101905062000f7f565b8683101562000fc6578489015162000fc2601f89168262000eb6565b8355505b6001600288020188555050505b505050505050565b600073ffffffffffffffffffffffffffffffffffffffff82169050919050565b6000620010088262000fdb565b9050919050565b6200101a8162000ffb565b82525050565b60006020820190506200103760008301846200100f565b92915050565b7f4e487b7100000000000000000000000000000000000000000000000000000000600052601160045260246000fd5b60008160011c9050919050565b6000808291508390505b6001851115620010cb57808604811115620010a357620010a26200103d565b5b6001851615620010b35780820291505b8081029050620010c3856200106c565b945062001083565b94509492505050565b600082620010e65760019050620011b9565b81620010f65760009050620011b9565b81600181146200110f57600281146200111a5762001150565b6001915050620011b9565b60ff8411156200112f576200112e6200103d565b5b8360020a9150848211156200114957620011486200103d565b5b50620011b9565b5060208310610133831016604e8410600b84101617156200118a5782820a9050838111156200118457620011836200103d565b5b620011b9565b62001199848484600162001079565b92509050818404811115620011b357620011b26200103d565b5b81810290505b9392505050565b600060ff82169050919050565b6000620011da8262000c17565b9150620011e783620011c0565b9250620012167fffffffffffffffffffffffffffffffffffffffffffffffffffffffffffffffff8484620010d4565b905092915050565b60006200122b8262000c17565b9150620012388362000c17565b9250828202620012488162000c17565b915082820484148315176200126257620012616200103d565b5b5092915050565b6000620012768262000c17565b9150620012838362000c17565b92508282019050808211156200129e576200129d6200103d565b5b92915050565b620012af8162000c17565b82525050565b6000606082019050620012cc60008301866200100f565b620012db6020830185620012a4565b620012ea6040830184620012a4565b949350505050565b6000602082019050620013096000830184620012a4565b92915050565b611cbd806200131f6000396000f3fe608060405234801561001057600080fd5b506004361061010b5760003560e01c80634ba1d6aa116100a257806395d89b411161007157806395d89b4114610294578063a9059cbb146102b2578063bfb231d2146102e2578063dd62ed3e14610314578063f2fde38b146103445761010b565b80634ba1d6aa1461021e57806370a082311461023c578063715018a61461026c5780638da5cb5b146102765761010b565b806323b872dd116100de57806323b872dd14610198578063313ce567146101c857806340c10f19146101e657806342966c68146102025761010b565b806306fdde0314610110578063095ea7b31461012e57806318160ddd1461015e5780631c26dc231461017c575b600080fd5b610118610360565b60405161012591906113d7565b60405180910390f35b61014860048036038101906101439190611492565b6103f2565b60405161015591906114ed565b60405180910390f35b610166610415565b6040516101739190611517565b60405180910390f35b61019660048036038101906101919190611532565b61041f565b005b6101b260048036038101906101ad919061155f565b610611565b6040516101bf91906114ed565b60405180910390f35b6101d0610640565b6040516101dd91906115ce565b60405180910390f35b61020060048036038101906101fb9190611492565b610649565b005b61021c60048036038101906102179190611532565b610683565b005b6102266106b4565b6040516102339190611763565b60405180910390f35b61025660048036038101906102519190611785565b610805565b6040516102639190611517565b60405180910390f35b610274610817565b005b61027e61082b565b60405161028b91906117c1565b60405180910390f35b61029c610855565b6040516102a991906113d7565b60405180910390f35b6102cc60048036038101906102c79190611492565b6108e7565b6040516102d991906114ed565b60405180910390f35b6102fc60048036038101906102f79190611532565b610921565b60405161030b939291906117dc565b60405180910390f35b61032e6004803603810190610329919061181a565b610a03565b60405161033b9190611517565b60405180910390f35b61035e60048036038101906103599190611785565b610a8a565b005b60606003805461036f90611889565b80601f016020809104026020016040519081016040528092919081815260200182805461039b90611889565b80156103e85780601f106103bd576101008083540402835291602001916103e8565b820191906000526020600020905b8154815290600101906020018083116103cb57829003601f168201915b5050505050905090565b6000806103fd610b10565b905061040a818585610b18565b600191505092915050565b6000600254905090565b6006805490508110610466576040517f08c379a000000000000000000000000000000000000000000000000000000000815260040161045d90611906565b60405180910390fd5b60006006828154811061047c5761047b611926565b5b90600052602060002090600302019050806001015461049a33610805565b10156104db576040517f08c379a00000000000000000000000000000000000000000000000000000000081526004016104d2906119a1565b60405180910390fd5b600073ffffffffffffffffffffffffffffffffffffffff168160020160009054906101000a900473ffffffffffffffffffffffffffffffffffffffff1673ffffffffffffffffffffffffffffffffffffffff161461056e576040517f08c379a000000000000000000000000000000000000000000000000000000000815260040161056590611a0d565b60405180910390fd5b61057c338260010154610b2a565b338160020160006101000a81548173ffffffffffffffffffffffffffffffffffffffff021916908373ffffffffffffffffffffffffffffffffffffffff1602179055503373ffffffffffffffffffffffffffffffffffffffff167fb546743952b4c412ca291dc346acac0398a3a71c37208c80c9b34ac1a33fb055836040516106059190611517565b60405180910390a25050565b60008061061c610b10565b9050610629858285610bac565b610634858585610c40565b60019150509392505050565b60006012905090565b610651610d34565b600061065b610640565b600a6106679190611b8f565b826106729190611bda565b905061067e8382610dbb565b505050565b600061068d610640565b600a6106999190611b8f565b826106a49190611bda565b90506106b03382610b2a565b5050565b60606006805480602002602001604051908101604052809291908181526020016000905b828210156107fc578382906000526020600020906003020160405180606001604052908160008201805461070b90611889565b80601f016020809104026020016040519081016040528092919081815260200182805461073790611889565b80156107845780601f1061075957610100808354040283529160200191610784565b820191906000526020600020905b81548152906001019060200180831161076757829003601f168201915b50505050508152602001600182015481526020016002820160009054906101000a900473ffffffffffffffffffffffffffffffffffffffff1673ffffffffffffffffffffffffffffffffffffffff1673ffffffffffffffffffffffffffffffffffffffff1681525050815260200190600101906106d8565b50505050905090565b600061081082610e3d565b9050919050565b61081f610d34565b6108296000610e85565b565b6000600560009054906101000a900473ffffffffffffffffffffffffffffffffffffffff16905090565b60606004805461086490611889565b80601f016020809104026020016040519081016040528092919081815260200182805461089090611889565b80156108dd5780601f106108b2576101008083540402835291602001916108dd565b820191906000526020600020905b8154815290600101906020018083116108c057829003601f168201915b5050505050905090565b6000806108f2610640565b600a6108fe9190611b8f565b836109099190611bda565b9050610916338583610c40565b600191505092915050565b6006818154811061093157600080fd5b906000526020600020906003020160009150905080600001805461095490611889565b80601f016020809104026020016040519081016040528092919081815260200182805461098090611889565b80156109cd5780601f106109a2576101008083540402835291602001916109cd565b820191906000526020600020905b8154815290600101906020018083116109b057829003601f168201915b5050505050908060010154908060020160009054906101000a900473ffffffffffffffffffffffffffffffffffffffff16905083565b6000600160008473ffffffffffffffffffffffffffffffffffffffff1673ffffffffffffffffffffffffffffffffffffffff16815260200190815260200160002060008373ffffffffffffffffffffffffffffffffffffffff1673ffffffffffffffffffffffffffffffffffffffff16815260200190815260200160002054905092915050565b610a92610d34565b600073ffffffffffffffffffffffffffffffffffffffff168173ffffffffffffffffffffffffffffffffffffffff1603610b045760006040517f1e4fbdf7000000000000000000000000000000000000000000000000000000008152600401610afb91906117c1565b60405180910390fd5b610b0d81610e85565b50565b600033905090565b610b258383836001610f4b565b505050565b600073ffffffffffffffffffffffffffffffffffffffff168273ffffffffffffffffffffffffffffffffffffffff1603610b9c5760006040517f96c6fd1e000000000000000000000000000000000000000000000000000000008152600401610b9391906117c1565b60405180910390fd5b610ba882600083611122565b5050565b6000610bb88484610a03565b90507fffffffffffffffffffffffffffffffffffffffffffffffffffffffffffffffff8114610c3a5781811015610c2a578281836040517ffb8f41b2000000000000000000000000000000000000000000000000000000008152600401610c2193929190611c1c565b60405180910390fd5b610c3984848484036000610f4b565b5b50505050565b600073ffffffffffffffffffffffffffffffffffffffff168373ffffffffffffffffffffffffffffffffffffffff1603610cb25760006040517f96c6fd1e000000000000000000000000000000000000000000000000000000008152600401610ca991906117c1565b60405180910390fd5b600073ffffffffffffffffffffffffffffffffffffffff168273ffffffffffffffffffffffffffffffffffffffff1603610d245760006040517fec442f05000000000000000000000000000000000000000000000000000000008152600401610d1b91906117c1565b60405180910390fd5b610d2f838383611122565b505050565b610d3c610b10565b73ffffffffffffffffffffffffffffffffffffffff16610d5a61082b565b73ffffffffffffffffffffffffffffffffffffffff1614610db957610d7d610b10565b6040517f118cdaa7000000000000000000000000000000000000000000000000000000008152600401610db091906117c1565b60405180910390fd5b565b600073ffffffffffffffffffffffffffffffffffffffff168273ffffffffffffffffffffffffffffffffffffffff1603610e2d5760006040517fec442f05000000000000000000000000000000000000000000000000000000008152600401610e2491906117c1565b60405180910390fd5b610e3960008383611122565b5050565b60008060008373ffffffffffffffffffffffffffffffffffffffff1673ffffffffffffffffffffffffffffffffffffffff168152602001908152602001600020549050919050565b6000600560009054906101000a900473ffffffffffffffffffffffffffffffffffffffff16905081600560006101000a81548173ffffffffffffffffffffffffffffffffffffffff021916908373ffffffffffffffffffffffffffffffffffffffff1602179055508173ffffffffffffffffffffffffffffffffffffffff168173ffffffffffffffffffffffffffffffffffffffff167f8be0079c531659141344cd1fd0a4f28419497f9722a3daafe3b4186f6b6457e060405160405180910390a35050565b600073ffffffffffffffffffffffffffffffffffffffff168473ffffffffffffffffffffffffffffffffffffffff1603610fbd5760006040517fe602df05000000000000000000000000000000000000000000000000000000008152600401610fb491906117c1565b60405180910390fd5b600073ffffffffffffffffffffffffffffffffffffffff168373ffffffffffffffffffffffffffffffffffffffff160361102f5760006040517f94280d6200000000000000000000000000000000000000000000000000000000815260040161102691906117c1565b60405180910390fd5b81600160008673ffffffffffffffffffffffffffffffffffffffff1673ffffffffffffffffffffffffffffffffffffffff16815260200190815260200160002060008573ffffffffffffffffffffffffffffffffffffffff1673ffffffffffffffffffffffffffffffffffffffff16815260200190815260200160002081905550801561111c578273ffffffffffffffffffffffffffffffffffffffff168473ffffffffffffffffffffffffffffffffffffffff167f8c5be1e5ebec7d5bd14f71427d1e84f3dd0314c0f7b2291e5b200ac8c7c3b925846040516111139190611517565b60405180910390a35b50505050565b600073ffffffffffffffffffffffffffffffffffffffff168373ffffffffffffffffffffffffffffffffffffffff16036111745780600260008282546111689190611c53565b92505081905550611247565b60008060008573ffffffffffffffffffffffffffffffffffffffff1673ffffffffffffffffffffffffffffffffffffffff16815260200190815260200160002054905081811015611200578381836040517fe450d38c0000000000000000000000000000000000000000000000000000000081526004016111f793929190611c1c565b60405180910390fd5b8181036000808673ffffffffffffffffffffffffffffffffffffffff1673ffffffffffffffffffffffffffffffffffffffff16815260200190815260200160002081905550505b600073ffffffffffffffffffffffffffffffffffffffff168273ffffffffffffffffffffffffffffffffffffffff160361129057806002600082825403925050819055506112dd565b806000808473ffffffffffffffffffffffffffffffffffffffff1673ffffffffffffffffffffffffffffffffffffffff168152602001908152602001600020600082825401925050819055505b8173ffffffffffffffffffffffffffffffffffffffff168373ffffffffffffffffffffffffffffffffffffffff167fddf252ad1be2c89b69c2b068fc378daa952ba7f163c4a11628f55a4df523b3ef8360405161133a9190611517565b60405180910390a3505050565b600081519050919050565b600082825260208201905092915050565b60005b83811015611381578082015181840152602081019050611366565b60008484015250505050565b6000601f19601f8301169050919050565b60006113a982611347565b6113b38185611352565b93506113c3818560208601611363565b6113cc8161138d565b840191505092915050565b600060208201905081810360008301526113f1818461139e565b905092915050565b600080fd5b600073ffffffffffffffffffffffffffffffffffffffff82169050919050565b6000611429826113fe565b9050919050565b6114398161141e565b811461144457600080fd5b50565b60008135905061145681611430565b92915050565b6000819050919050565b61146f8161145c565b811461147a57600080fd5b50565b60008135905061148c81611466565b92915050565b600080604083850312156114a9576114a86113f9565b5b60006114b785828601611447565b92505060206114c88582860161147d565b9150509250929050565b60008115159050919050565b6114e7816114d2565b82525050565b600060208201905061150260008301846114de565b92915050565b6115118161145c565b82525050565b600060208201905061152c6000830184611508565b92915050565b600060208284031215611548576115476113f9565b5b60006115568482850161147d565b91505092915050565b600080600060608486031215611578576115776113f9565b5b600061158686828701611447565b935050602061159786828701611447565b92505060406115a88682870161147d565b9150509250925092565b600060ff82169050919050565b6115c8816115b2565b82525050565b60006020820190506115e360008301846115bf565b92915050565b600081519050919050565b600082825260208201905092915050565b6000819050602082019050919050565b600082825260208201905092915050565b600061163182611347565b61163b8185611615565b935061164b818560208601611363565b6116548161138d565b840191505092915050565b6116688161145c565b82525050565b6116778161141e565b82525050565b6000606083016000830151848203600086015261169a8282611626565b91505060208301516116af602086018261165f565b5060408301516116c2604086018261166e565b508091505092915050565b60006116d9838361167d565b905092915050565b6000602082019050919050565b60006116f9826115e9565b61170381856115f4565b93508360208202850161171585611605565b8060005b85811015611751578484038952815161173285826116cd565b945061173d836116e1565b925060208a01995050600181019050611719565b50829750879550505050505092915050565b6000602082019050818103600083015261177d81846116ee565b905092915050565b60006020828403121561179b5761179a6113f9565b5b60006117a984828501611447565b91505092915050565b6117bb8161141e565b82525050565b60006020820190506117d660008301846117b2565b92915050565b600060608201905081810360008301526117f6818661139e565b90506118056020830185611508565b61181260408301846117b2565b949350505050565b60008060408385031215611831576118306113f9565b5b600061183f85828601611447565b925050602061185085828601611447565b9150509250929050565b7f4e487b7100000000000000000000000000000000000000000000000000000000600052602260045260246000fd5b600060028204905060018216806118a157607f821691505b6020821081036118b4576118b361185a565b5b50919050565b7f496e76616c6964206974656d2049440000000000000000000000000000000000600082015250565b60006118f0600f83611352565b91506118fb826118ba565b602082019050919050565b6000602082019050818103600083015261191f816118e3565b9050919050565b7f4e487b7100000000000000000000000000000000000000000000000000000000600052603260045260246000fd5b7f496e73756666696369656e742062616c616e6365000000000000000000000000600082015250565b600061198b601483611352565b915061199682611955565b602082019050919050565b600060208201905081810360008301526119ba8161197e565b9050919050565b7f4974656d20616c72656164792072656465656d65640000000000000000000000600082015250565b60006119f7601583611352565b9150611a02826119c1565b602082019050919050565b60006020820190508181036000830152611a26816119ea565b9050919050565b7f4e487b7100000000000000000000000000000000000000000000000000000000600052601160045260246000fd5b60008160011c9050919050565b6000808291508390505b6001851115611ab357808604811115611a8f57611a8e611a2d565b5b6001851615611a9e5780820291505b8081029050611aac85611a5c565b9450611a73565b94509492505050565b600082611acc5760019050611b88565b81611ada5760009050611b88565b8160018114611af05760028114611afa57611b29565b6001915050611b88565b60ff841115611b0c57611b0b611a2d565b5b8360020a915084821115611b2357611b22611a2d565b5b50611b88565b5060208310610133831016604e8410600b8410161715611b5e5782820a905083811115611b5957611b58611a2d565b5b611b88565b611b6b8484846001611a69565b92509050818404811115611b8257611b81611a2d565b5b81810290505b9392505050565b6000611b9a8261145c565b9150611ba5836115b2565b9250611bd27fffffffffffffffffffffffffffffffffffffffffffffffffffffffffffffffff8484611abc565b905092915050565b6000611be58261145c565b9150611bf08361145c565b9250828202611bfe8161145c565b91508282048414831517611c1557611c14611a2d565b5b5092915050565b6000606082019050611c3160008301866117b2565b611c3e6020830185611508565b611c4b6040830184611508565b949350505050565b6000611c5e8261145c565b9150611c698361145c565b9250828201905080821115611c8157611c80611a2d565b5b9291505056fea2646970667358221220677ac45a83a40dd3c22a92f14495d5eb7252627e973132adc5986b4630e99c6c64736f6c63430008180033",
  "linkReferences": {},
  "deployedLinkReferences": {}
}